:020000040000FA
:0400000037EF00F0E6
:100008004A82FACF10F0FBCF11F0D9CF12F0DACF35
:1000180013F0F3CF14F0F4CF15F0F2AC16EF00F0B4
:1000280018EF00F029EF00F00E01BEA31EEF00F05C
:1000380020EF00F029EF00F0C6A325EF00F027EF2E
:1000480000F029EF00F0C0EC1EF015C0F4FF14C05A
:10005800F3FF13C0DAFF12C0D9FF11C0FBFF10C0B5
:0A006800FAFF4A921100C2EF1CF0EB
:100F000000000000000000000000000000000000E1
:100F1000640101010000000000000000000000006A
:100F20000064010204000100000000000000000055
:100F30000000640103030001000000000000000045
:100F40000000006401040200010000000000000035
:100F50000000000064010002C04020000000000109
:100F60001FC04020000000000204C040200000001C
:100F7000000305C0402000000000040CC040200019
:100F80000000000020EE02F02A50D9262B50DA2271
:100F9000DF500001F36F20EE03F02A50D9262B50CA
:100FA000DA22DF50FA6F100EFA61D9EF07F0DBEFAB
:100FB00007F0E1EF07F00C0EF96F000EF66FE5EFAA
:100FC00007F0080EF96F040EF66F3F04D8A4EBEF9C
:100FD00007F0EDEF07F001EF08F0F9C02CF0FA513F
:100FE0002D6E2E6A2C2AF8EF07F0D8902D362E366B
:100FF0002C2EF5EF07F02DC0FBF02EC0FCF017EF04
:1010000008F0F9C02CF0F35140C02DF02E6A2D5E8F
:10101000000E2E5A2C2A10EF08F0D8902D362E36BE
:101020002C2E0DEF08F02DC0FBF02EC0FCF03AC0C6
:101030001DF03BC01EF036C01FF037C020F038C096
:1010400021F039C022F0F9C023F0DFEC15F01D507B
:101050000001FB271E50FC23020EFA6532EF08F058
:1010600034EF08F065EF08F020EE01F02A50D926A1
:101070002B50DA22DE04D8A440EF08F042EF08F04B
:1010800053EF08F0FBC016F0FCC017F0FAC018F0E0
:10109000196AF6C01AF06DEC15F016C0FBF017C017
:1010A000FCF065EF08F0FBC016F0FCC017F0FF0E77
:1010B000FA25186E196AFF0E1922F6C01AF06DECA7
:1010C00015F016C0FBF017C0FCF00001FB05100E78
:1010D000FC59D8A06EEF08F070EF08F074EF08F03C
:1010E000100EFC6F000EFB6F20EE01F02A50D92687
:1010F0002B50DA22DF50D8A480EF08F082EF08F0FE
:10110000E8EF08F020EE04F02A50D9262B50DA221E
:10111000DF502C6E0F0E2C16D8B491EF08F093EF21
:1011200008F0E8EF08F0000EF86F000EF76F20EE01
:1011300004F02A50D9262B50DA22DF502C6E0F0EE5
:101140002C162C50F46FF56BADEF08F0F407D8A017
:10115000F507280EF727000EF823F451F511D8A44F
:10116000B4EF08F0B6EF08F0A6EF08F0F751FB5D1A
:10117000F851FC59D8B0BFEF08F0C1EF08F0C7EF45
:1011800008F0000EFC6F000EFB6FCDEF08F0F7517A
:10119000FB5DFB6FF851FC59FC6FFBC016F0FCC007
:1011A00017F0F7C02CF0F8C02DF0D8902C362D3663
:1011B0002C500008186E2D50D8A0E82A1008196E7F
:1011C0000C0E1A6E6DEC15F016C0FBF017C0FCF09B
:1011D00049500C082C6EFBC02DF0FCC02EF02C2AC0
:1011E000F5EF08F0D8902E322D322C2EF2EF08F0C9
:1011F0002DC0FBF02EC0FCF0FF0E2C6EFF0E2D6EEE
:1012000049C02EF0010E2F6E000E306E2E2A0CEF0C
:1012100009F0D8902F3630362E2E09EF09F02C50D9
:101220002F262D5030220001FB512F5CFC513058ED
:10123000D8B01DEF09F01FEF09F035EF09F049C0F4
:101240002CF0010E2D6E000E2E6E2C2A2BEF09F0C5
:10125000D8902D362E362C2E28EF09F0FF0E2D2497
:101260000001FB6FFF0E2E20FC6FFBC02AF0FCC0BC
:101270002BF012000101686F000E0101656F000E76
:10128000616F000E626F6851D8A449EF09F04BEF0F
:1012900009F093EF0AF06851110DE20EF324696F23
:1012A000000EF4206A6F20EE01F06951D9266A51D0
:1012B000DA22010EDF645FEF09F061EF09F06FEFF2
:1012C00009F020EE04F06951D9266A51DA22D00ED5
:1012D000DF606DEF09F06FEF09F093EF0AF020EE99
:1012E00004F06951D9266A51DA22DF505D6F5D3909
:1012F0000F0B0F0B496E49C05DF1010E5E6F000EC2
:101300005F6F5D2B87EF09F0D8905E375F375D2FF9
:1013100084EF09F05EC13CF05FC13DF069C123F08C
:101320006AC124F006EC19F0010120EE0EF06951BB
:10133000D9266A51DA2223C0DEFF24C0DDFF20EE69
:1013400006F06951D9266A51DA2210EE0EF0695181
:10135000E1266A51E222DE50E65CDE50E658D8A073
:10136000B4EF09F0B6EF09F00FEF0AF020EE10F03D
:101370006951D9266A51DA22DF50030B020AD8A438
:10138000C4EF09F0C6EF09F0CAEF09F0010E626F71
:101390000FEF0AF020EE02F06951D9266A51DA22E5
:1013A000DF505D6F5D51666F676B665137EC1DF006
:1013B0000009D8B4DEEF09F0E0EF09F0E8EF09F03A
:1013C000010E0101626F6851F1EC20F00FEF0AF09D
:1013D000010E01016625666F000E6721676F20EE22
:1013E00002F06951D9266A51DA22DF505D6F5E6BD7
:1013F00020EE03F06951D9266A51DA22DF505F6F7F
:101400005F515D27000E5E235D51665D5E51675939
:10141000D8A00DEF0AF00FEF0AF0D5EF09F00101A7
:101420006251D8A416EF0AF018EF0AF049EF0AF05B
:1014300020EE0EF06951D9266A51DA22000EDE6ED6
:10144000000EDD6E20EE10F06951D9266A51DA22C5
:10145000DF50030B020AD8A430EF0AF032EF0AF093
:101460003FEF0AF020EE10F06951D9266A51DA22D6
:10147000010EDF6E6851F1EC20F084EF0AF020EEEF
:1014800010F06951D9266A51DA22010EDF6E84EF1D
:101490000AF069C155F16AC156F1A9EC19F055C1BC
:1014A00063F156C164F1010120EE0CF06951D926B7
:1014B0006A51DA226351DE1809E16451DE18D8B4AA
:1014C00064EF0AF066EF0AF081EF0AF0658520EE1E
:1014D0000CF06951D9266A51DA2263C1DEFF64C17A
:1014E000DDFF02D881EF0AF00500FA6E0001D3514A
:1014F000FD6ED451FE6ED551FF6EFA500101685158
:10150000120001016583658F010120EE10F0695121
:10151000D9266A51DA2265C1DFFF6551820B61135A
:10152000615100019613120020EE0FF02950D926C8
:101530002A50DA22DF5000082B6E20EE0AF02950E4
:10154000D9262A50DA22DE50800A2D6E2B50800ACE
:101550002D5CD8B0AEEF0AF0B0EF0AF0DEEF0AF083
:1015600020EE0BF02950D9262A50DA22DE2A000E6E
:10157000DD2220EE0BF02950D9262A50DA22010E66
:10158000DB5009E1410EDE5CD8A0C9EF0AF0CBEFD9
:101590000AF03FEF0BF020EE0BF02950D9262A502D
:1015A000DA22000EDE6E000EDD6E29C0D9FF2AC0E1
:1015B000DAFFDF50C9EC1AF03FEF0BF020EE0AF033
:1015C0002950D9262A50DA22DF502B6E20EE0FF058
:1015D0002950D9262A50DA22DF502C6E2C50D88080
:1015E000D8842BAE2B5CD8A0D884D8B4FAEF0AF0FC
:1015F000FCEF0AF035EF0BF020EE03F02950D9266E
:101600002A50DA22DF50D8B408EF0BF00AEF0BF0C3
:101610001AEF0BF029C01EF02AC01FF079EC11F070
:101620000009D8B416EF0BF018EF0BF01AEF0BF01F
:1016300090EF0BF020EE02F02950D9262A50DA2242
:10164000020EDF6E20EE0BF02950D9262A50DA2246
:10165000000EDE6E000EDD6E29C0D9FF2AC0DAFF53
:10166000DF50F3EC20F03FEF0BF020EE0BF02950B1
:10167000D9262A50DA22000EDE6E000EDD6E20EE34
:1016800003F02950D9262A50DA22DF50D8B44BEF84
:101690000BF04DEF0BF067EF0BF029C01EF02AC0E6
:1016A0001FF079EC11F00009D8B459EF0BF05BEFA3
:1016B0000BF067EF0BF020EE0DF02950D9262A50E1
:1016C000DA22FF0EDE6EFB0EDD6E90EF0BF020EEE9
:1016D0000DF02950D9262A50DA22DE2A000EDD220A
:1016E00020EE0DF02950D9262A50DA22400EDE18BD
:1016F000DE10D8A47EEF0BF080EF0BF090EF0BF034
:1017000020EE0DF02950D9262A50DA22000EDE6E86
:10171000000EDD6E29C016F02AC017F05AEC13F047
:1017200012001D6E1D50020D7E0EF324D96E000EA8
:10173000F420DA6E880E1D24E16EE26A000EE222C9
:10174000E7CF18F0010EE7261850020DF3CF19F07D
:10175000F4CF1AF01D50060D600E1B6E000E1C6EAD
:10176000F3501B26F4501C2219501B24E16E1A5012
:101770001C20E26EDECFE6FFDDCFE5FF880E1D24E4
:10178000D96EDA6A000EDA22020EDF64CAEF0BF0BD
:10179000CCEF0BF0D4EF0BF0880E1D24D96EDA6A73
:1017A000000EDA22000EDF6E1D50060D620EF324CD
:1017B000D96E000EF420DA6E1D50060D600EF32473
:1017C000E16E000EF420E26EDE50E65CDE50E6587C
:1017D000D8A0EDEF0BF0EFEF0BF04FEF0CF01D503A
:1017E000060D640EF324D96E000EF420DA6E1D503F
:1017F000060D620EF324E16E000EF420E26EDE5060
:10180000E65CDE50E658D8A008EF0CF00AEF0CF0CA
:1018100018EF0CF01D50060D620EF324D96E000E69
:10182000F420DA6EDECF16F0DDCF17F089EF0CF082
:101830001D50060D640EF324D96E000EF420DA6EEE
:101840001D50060D600EF324E16E000EF420E26ED2
:10185000DE50E65CDE50E658D8A031EF0CF033EFF6
:101860000CF041EF0CF01D50060D640EF324D96E00
:10187000000EF420DA6EDECF16F0DDCF17F089EF20
:101880000CF01D50060D600EF324D96E000EF420EE
:10189000DA6EDECF16F0DDCF17F089EF0CF01D50B9
:1018A000060D640EF324D96E000EF420DA6E1D507E
:1018B000060D600EF324E16E000EF420E26EDE50A1
:1018C000E65CDE50E658D8A068EF0CF06AEF0CF04A
:1018D0006CEF0CF041EF0CF01D50060D640EF3247C
:1018E000D96E000EF420DA6E1D50060D620EF32440
:1018F000E16E000EF420E26EDE50E65CDE50E6584B
:10190000D8A085EF0CF087EF0CF00AEF0CF033EF66
:101910000CF01200000E266E000E256E000E276ED3
:101920004450020DF3CF1AF0F4CF1BF02750060DF0
:10193000600E1C6E000E1D6EF3501C26F4501D220E
:101940001A501C24D96E1B501D20DA6EDECF1EF0FB
:10195000DDCF1FF02750020D7E0EF324D96E000E4E
:10196000F420DA6EDECF20F0DDCF21F01E50205CB7
:10197000166E1F502158176E57EC1DF016C023F03D
:1019800017C024F02350255C24502658D8B0CBEF44
:101990000CF0CDEF0CF0D1EF0CF023C025F024C0FB
:1019A00026F0272A040E2764D8EF0CF0DAEF0CF0AB
:1019B00090EF0CF0265009E1650E255CD8A0E3EF0E
:1019C0000CF0E5EF0CF059EF0DF0910E4424D96EB8
:1019D000DA6A000EDA22DF2A050EDF64F2EF0CF07D
:1019E000F4EF0CF079EF0DF0DC0E4424D96EDA6AD6
:1019F000000EDA22DF50286E040E286402EF0DF08C
:101A000004EF0DF009EF0DF02850FC0F286E0BEFDE
:101A10000DF03C0E286E010E226E000E296E445011
:101A20002918D8A416EF0DF018EF0DF01AEF0DF0ED
:101A30002BEF0DF0DC0E2924D96EDA6A000EDA22C3
:101A40002850DE18D8A427EF0DF029EF0DF02BEF6A
:101A50000DF0000E226E292A020E296432EF0DF0DD
:101A600034EF0DF00FEF0DF02250D8B43AEF0DF037
:101A70003CEF0DF0FCEF0CF0DC0E4424D96EDA6A7A
:101A8000000EDA2228C0DFFF000E296E910E2924F5
:101A9000D96EDA6A000EDA22000EDF6E292A020EF3
:101AA000296455EF0DF057EF0DF046EF0DF079EF8B
:101AB0000DF0265007E1320E255CD8B062EF0DF034
:101AC00064EF0DF079EF0DF0910E4424D96EDA6ACF
:101AD000000EDA22DF50D8B470EF0DF072EF0DF087
:101AE00079EF0DF0910E4424D96EDA6A000EDA22F5
:101AF000DF06120037EF0EF0E5EC20F00009D8B455
:101B000084EF0DF086EF0DF059EF0EF0E8EC20F0C9
:101B10003E6E040E3E608FEF0DF091EF0DF096EFEC
:101B20000DF0000E0001956F010E946FDBEC20F0BC
:101B3000D7EC20F059EF0EF03E04D8A4A2EF0DF040
:101B4000A4EF0DF0ABEF0DF0000E0001956F020E4B
:101B5000946FD0EF0DF0020E3E18D8A4B2EF0DF046
:101B6000B4EF0DF0BBEF0DF0000E0001956F030E0A
:101B7000946FD0EF0DF0030E3E18D8A4C2EF0DF015
:101B8000C4EF0DF0CBEF0DF0000E0001956F040EC9
:101B9000946FD0EF0DF0000E0001956F000E946F62
:101BA000000E3E6E59EF0EF034043510D8B4DBEF62
:101BB0000DF0DDEF0DF0F2EF0DF0000E356E010EC1
:101BC000346E8588000E176EB40E166EDBEC1EF0B8
:101BD000849C848A8488858C8382848E8384859A7D
:101BE00059EF0EF0000E0001956F000E946F59EF43
:101BF0000EF034043510D8A400EF0EF002EF0EF012
:101C0000F2EF0DF0000E356E000E346E8598000E6A
:101C1000176E000E166EDBEC1EF0848C848A8488AE
:101C2000858C8382848E858A839459EF0EF03404E8
:101C30003510D8A41EEF0EF020EF0EF0F2EF0DF0ED
:101C40008FC016F090C017F05AEC0EF016C01CF0C2
:101C500017C01DF01CC016F01DC017F0DBEC1EF005
:101C6000000E0001906F000E8F6FF2EF0DF094C028
:101C70001AF095C01BF01B50000AD8B442EF0EF0CA
:101C8000F2EF0DF01A50000AD8B47CEF0DF0010A03
:101C9000D8B49CEF0DF0030AD8B4D4EF0DF0010ACC
:101CA000D8B4F9EF0DF0070AD8B417EF0EF0F2EF41
:101CB0000DF01200175007E1140E165CD8B063EF58
:101CC0000EF065EF0EF071EF0EF0848C848A84883C
:101CD000858C8382848E000E196E000E186E30EF94
:101CE0000FF0175009E1140E165CD8A07AEF0EF031
:101CF0007CEF0EF093EF0EF0175007E13C0E165CF0
:101D0000D8B085EF0EF087EF0EF093EF0EF0849CC5
:101D1000848A8488858C8382848E000E196EB40E2A
:101D2000186E30EF0FF0175009E13C0E165CD8A08A
:101D30009CEF0EF09EEF0EF0B5EF0EF0175007E19E
:101D4000640E165CD8B0A7EF0EF0A9EF0EF0B5EF59
:101D50000EF0849C849A8488858C8382848E000E05
:101D6000196EFA0E186E30EF0FF0175009E1640E7D
:101D7000165CD8A0BEEF0EF0C0EF0EF0D7EF0EF05D
:101D8000175007E18C0E165CD8B0C9EF0EF0CBEF00
:101D90000EF0D7EF0EF0849C849A8498858C838211
:101DA000848E010E196E400E186E30EF0FF0175032
:101DB00009E18C0E165CD8A0E0EF0EF0E2EF0EF019
:101DC000F9EF0EF0175007E1B40E165CD8B0EBEF48
:101DD0000EF0EDEF0EF0F9EF0EF0849C849A8498EB
:101DE000859C8382848E010E196E860E186E30EFEC
:101DF0000FF0175009E1B40E165CD8A002EF0FF0F7
:101E000004EF0FF01BEF0FF0175007E1D70E165C31
:101E1000D8B00DEF0FF00FEF0FF01BEF0FF0849C19
:101E2000849A8498859C8392848E010E196ECC0EC0
:101E3000186E30EF0FF0175009E1D70E165CD8A0DE
:101E400024EF0FF026EF0FF06BEF0EF0849C849AD6
:101E50008498859C8392849E020E196E120E186ED1
:101E600018C016F019C017F01200000E1D6E000EFB
:101E7000F2BE010E1C6E4FEF0FF0482A050E4818F7
:101E8000D8A445EF0FF047EF0FF04FEF0FF0000E23
:101E9000486E000E476E010E1D6E65EF0FF0485044
:101EA000B6EC1DF00009D8A458EF0FF05AEF0FF070
:101EB0003DEF0FF0485097EC1DF00009D8B463EFE8
:101EC0000FF065EF0FF03DEF0FF01D50D8A46BEF52
:101ED0000FF06DEF0FF0FFEF0FF04850090D970E68
:101EE000F3241E6E000EF4201F6E1EC016F01FC0DD
:101EF00017F00EEC20F00009D8B481EF0FF083EF5B
:101F00000FF096EF0FF020EE03F01E50D9261F5071
:101F1000DA22DF500F01576F20EE02F01E50D92653
:101F20001F50DA22DF50596FBCEF0FF01EC016F0C1
:101F30001FC017F0FEEC1FF00009D8B4A2EF0FF09D
:101F4000A4EF0FF0B7EF0FF020EE02F01E50D926ED
:101F50001F50DA22DF500F01596F20EE03F01E50A0
:101F6000D9261F50DA22DF50576FBCEF0FF0C00E9A
:101F70000F01596FC00E576F4350592720EE01F0E3
:101F80001E50D9261F50DA22DF505A6F20EE04F07F
:101F90001E50D9261F50DA22DF501A6ED8901A3000
:101FA000616E20EE05F01E50D9261F50DA22DF5058
:101FB000586F5B8F010E476E010E166E4850F6EC9F
:101FC00019F0F29E0F015B8120EE04F01E50D9261D
:101FD0001F50DA22DF501A6E1B6A090ED8901A368B
:101FE0001B36E82EEEEF0FF01AC06BFF1BC06CFF24
:101FF0001CB002D0F29E01D0F28E000E466E12008E
:10200000000E086E000EF2BE010E076E1AEF10F001
:10201000482A050E4818D8A410EF10F012EF10F05F
:102020001AEF10F0000E486E000E476E010E086E9B
:1020300030EF10F04850F4EC1DF00009D8A423EF65
:1020400010F025EF10F008EF10F0485013EC1EF0E0
:102050000009D8B42EEF10F030EF10F008EF10F0B8
:102060000850D8A436EF10F038EF10F0CAEF10F097
:102070004850090D970EF324096E000EF4200A6EE5
:1020800009C001F00AC002F01EEC20F00009D8B42B
:102090004CEF10F04EEF10F061EF10F020EE03F077
:1020A0000950D9260A50DA22DF500F01576F20EE6F
:1020B00002F00950D9260A50DA22DF50596F87EF13
:1020C00010F009C001F00AC002F02EEC20F0000967
:1020D000D8B46DEF10F06FEF10F082EF10F020EE3B
:1020E00002F00950D9260A50DA22DF500F01596F49
:1020F00020EE03F00950D9260A50DA22DF50576F3C
:1021000087EF10F0C00E0F01596FC00E576F43508C
:10211000592720EE01F00950D9260A50DA22DF5063
:102120005A6F20EE04F00950D9260A50DA22DF5007
:10213000056ED8900530616E20EE05F00950D92665
:102140000A50DA22DF50586F5B8F010E476E010E86
:10215000016E48503EEC1AF0F29E0F015B8120EEBA
:1021600004F00950D9260A50DA22DF50056E066ABB
:10217000090ED89005360636E82EB9EF10F005C0E6
:102180006BFF06C06CFF07B002D0F29E01D0F28E4A
:10219000000E466E1200000E2F6E20EE05F023504A
:1021A000D9262450DA22DF502E6E20EE0CF0235078
:1021B000D9262450DA22DECF2AF0DDCF2BF023C03F
:1021C00016F024C017F02AC018F02BC019F025C053
:1021D0001AF026C01BF0F9EC17F016C030F017C04B
:1021E00031F031BEF8EF10F0F6EF10F002EF11F021
:1021F00030500008306E3150D8A0E82A0008316E07
:10220000010E2F6E2F04D8A408EF11F00AEF11F081
:1022100038EF11F020EE09F02350D9262450DA22AD
:10222000DF50276E286A3050275C2850800A296EBC
:102230003150800A2958D8B020EF11F022EF11F068
:1022400038EF11F020EE08F02350D9262450DA227E
:102250002EC0DFFF20EE09F02350D9262450DA22C9
:10226000000EDF6E25C02CF026C02DF074EF11F0AB
:102270002F50D8A43EEF11F040EF11F06AEF11F0AB
:1022800020EE08F02350D9262450DA22DF50276EA2
:10229000286A3050275C2850800A296E3150800A05
:1022A0002958D8B056EF11F058EF11F06AEF11F03D
:1022B00020EE08F02350D9262450DA22000EDF6EDB
:1022C00020EE09F02350D9262450DA222EC0DFFF59
:1022D00032EF11F020EE0CF02350D9262450DA22F0
:1022E000DECF2CF0DDCF2DF02CC023F02DC024F05C
:1022F000120020EE03F01E50D9261F50DA22DF50C4
:10230000246E1EC016F01FC017F01EEC1CF020EE4D
:102310000FF01E50D9261F50DA22DF50206E2050B9
:10232000165C226E1750D8A01704236E000E276E7D
:10233000010E286E2850010802E127504408D8B049
:10234000A4EF11F0A6EF11F0A8EF11F01FEF12F0BB
:102350001EC0D9FF1FC0DAFF27C0E1FF28C0E2FF7F
:10236000DE50E618D8A4B7EF11F0B9EF11F0BBEFCB
:1023700011F00FEF12F020EE03F02750D92628506D
:10238000DA222450DE18D8A4C8EF11F0CAEF11F0F9
:102390000FEF12F020EE02F02750D9262850DA2253
:1023A000020EDE18D8A4D7EF11F0D9EF11F0DCEF50
:1023B00011F0010E20EF12F027C016F028C017F020
:1023C0001EEC1CF020EE0FF02750D9262850DA2200
:1023D000DF50206E2050165C256E1750D8A01704D1
:1023E000266E26BEFCEF11F0265008E12504D8A089
:1023F000FCEF11F0FEEF11F00FEF12F02550225C10
:102400002350800A206E2650800A2058D8B00BEF47
:1024100012F00DEF12F00FEF12F0D9EF11F0110ED4
:102420002726000E28222850010802E127504408E0
:10243000D8B01DEF12F01FEF12F0A8EF11F0000E50
:10244000120005C0D9FF06C0DAFFDF500B6E05C0D1
:1024500001F006C002F02EEC20F00009D8A433EF02
:1024600012F035EF12F067EF12F020EE04F0055095
:10247000D9260650DA22DF50076E086A090ED89076
:1024800007360836E82E3FEF12F06D50075C6E50AD
:102490000858D8B04EEF12F050EF12F05FEF12F084
:1024A00020EE05F00550D9260650DA22DF2A1E0E4E
:1024B000DF645DEF12F05FEF12F0C4EF12F005C0C1
:1024C00001F006C002F00DEC1FF0C4EF12F020EE98
:1024D00004F00550D9260650DA22DF50076E086A4C
:1024E000D890073608360B50020D7E0EF324D96EB5
:1024F000000EF420DA6EDECF09F0DDCF0AF06D5069
:10250000095C016E6E500A58026E77EC1DF00750A0
:10251000015C08500258D8B090EF12F092EF12F020
:10252000A2EF12F020EE02F00550D9260650DA2272
:10253000C00EDF6E05C001F006C002F05CEC20F0BA
:10254000C4EF12F020EE03F00550D9260650DA222F
:10255000B70EDF64AEEF12F0B0EF12F0BAEF12F088
:1025600020EE02F00550D9260650DA22C00EDF6EAA
:102570009AEF12F020EE03F00550D9260650DA2229
:10258000080EDF26C4EF12F0120020EE06F01650FF
:10259000D9261750DA22DECF18F0DECF19F0DECFC1
:1025A0001AF0DECF1BF0050EDBEF12F0D8901B32D5
:1025B0001A3219321832E82ED6EF12F020EE04F05B
:1025C0001650D9261750DA22DECF1CF0DDCF1DF0D1
:1025D0001C501E6E1D501F6E206A216A18501E5C12
:1025E000226E19501F58236E1A502058246E1B500B
:1025F0002158256E20EE10F01650D9261750DA22F9
:10260000DF50186E22C019F023C01AF024C01BF04E
:1026100025C01CF018660FEF13F017EF13F01C34F1
:102620001C321B321A321932182E0AEF13F019C05D
:1026300022F01AC023F01BC024F01CC025F025BED8
:102640002DEF13F025502410231009E1800E225C99
:10265000D8A02DEF13F02FEF13F037EF13F07F0E0C
:10266000226E000E236E000E246E000E256E25AE27
:1026700047EF13F0800E225CFF0E2358FF0E245804
:10268000FF0E2558D8B047EF13F049EF13F051EF84
:1026900013F0800E226EFF0E236EFF0E246EFF0ECF
:1026A000256E20EE0AF01650D9261750DA2222C0E5
:1026B000DFFF1200F2AE5FEF13F061EF13F0A3EF54
:1026C00013F0F29E20EE06F01650D9261750DA22AB
:1026D000DECF18F0DECF19F0DECF1AF0DECF1BF020
:1026E000050E78EF13F0D8901B321A3219321832D7
:1026F000E82E73EF13F020EE06F01650D92617508F
:10270000DA221850DE5E1950DE5A1A50DE5A1B507B
:10271000DE5A20EE04F01650D9261750DA22DECF0A
:1027200018F0DDCF19F020EE06F01650D92617501C
:10273000DA221850DE261950DE22000EDE22DE22BA
:10274000F28EE1EF13F020EE06F01650D926175066
:10275000DA22DECF18F0DECF19F0DECF1AF0DECFAE
:102760001BF0050EB9EF13F0D8901B321A32193254
:102770001832E82EB4EF13F020EE06F01650D926EA
:102780001750DA221850DE5E1950DE5A1A50DE5AFF
:102790001B50DE5A20EE04F01650D9261750DA22CC
:1027A000DECF18F0DDCF19F020EE06F01650D92656
:1027B0001750DA221850DE261950DE22000EDE22D3
:1027C000DE22120020EE0BF02950D9262A50DA2200
:1027D000E80EDE5C030EDE58D8A0F1EF13F0F3EF45
:1027E00013F00FEF14F029C0D9FF2AC0DAFFDF5031
:1027F000C9EC1AF002D80DEF14F00500FA6E0001D2
:10280000D651FD6ED751FE6ED851FF6EFA5029C0D9
:10281000D9FF2AC0DAFFDF50120066EF14F020EE75
:102820000FF02950D9262A50DA22DF502B6ED8908B
:102830002B3220EE0FF02950D9262A50DA22DF5011
:102840002C6E2B502C5C2D6E20EE0AF02950D926D0
:102850002A50DA22DE50800A2F6E2D50800A2F5C1B
:10286000D8B035EF14F037EF14F066EF14F020EE27
:1028700002F02950D9262A50DA22010EDF6E20EE0E
:102880000BF02950D9262A50DA22000EDE6E000EF7
:10289000DD6E20EE0DF02950D9262A50DA22FF0EE7
:1028A000DE6EFB0EDD6E02D866EF14F00500FA6EE8
:1028B0000001D651FD6ED751FE6ED851FF6EFA5011
:1028C00029C0D9FF2AC0DAFFDF501200120020EE23
:1028D0000AF02350D9262450DA22DECF2DF0DDCFA6
:1028E0002EF023C016F024C017F02DC018F02EC013
:1028F00019F025C01AF026C01BF0F9EC17F016C02D
:1029000031F017C032F031043210D8B48AEF14F02D
:102910008CEF14F096EF14F0312806E13228D8A499
:1029200094EF14F096EF14F09CEF14F02DC02BF000
:102930002EC02CF0E5EF14F032BEA3EF14F0A1EF9F
:1029400014F0C0EF14F031500008316E3250D8A0AE
:10295000E82A0008326E31C02FF032C030F0D89033
:102960003030276E2F302F6E27C030F02F500008E8
:10297000316E3050D8A0E82A0008326ECFEF14F044
:1029800031C02FF032C030F0D8903030276E2F3069
:102990002F6E27C030F02FC031F030C032F02D50F4
:1029A00031242B6E2E5032202C6EFF0E276EFF0E20
:1029B000286E3CC029F03DC02AF027502926285017
:1029C0002A2229502B162A502C162BC023F02CC05B
:1029D00024F01200000E016E48503EEC1AF04650F2
:1029E000D8B4F5EF14F0F7EF14F0FBEF14F00F018B
:1029F0005B9F6AEF15F00F015B9F4850090D970E22
:102A0000F3240E6E000EF4200F6E0EC001F00FC006
:102A100002F01EEC20F00009D8A411EF15F013EF1E
:102A200015F01BEF15F00EC005F00FC006F021ECFD
:102A300012F021EF15F00EC001F00FC002F0B0EC63
:102A400020F04850020D7E0EF324D96E000EF420C3
:102A5000DA6EDECF0CF0DDCF0DF06D500C5C016E48
:102A60006E500D58026E77EC1DF0025009E1650EB4
:102A7000015CD8A03EEF15F040EF15F04CEF15F0DB
:102A80004850090D9F0EF324D96E000EF420DA6E23
:102A90000001DF8456EF15F04850090D9F0EF32416
:102AA000D96E000EF420DA6E0001DF944550D8A4F0
:102AB0005CEF15F05EEF15F06AEF15F04850020D6F
:102AC0007E0EF324D96E000EF420DA6E6DCFDEFF99
:102AD0006ECFDDFF00EC10F01200000E1C6E000E39
:102AE0001B6E1A2A18501910D8B479EF15F07BEF25
:102AF00015F0CEEF15F083EF15F01A06D8901634C6
:102B0000166E1734176E17BE88EF15F08AEF15F0A2
:102B10009AEF15F01A50D8A490EF15F092EF15F037
:102B20007DEF15F09AEF15F01A2AD8901834186E28
:102B30001934196E19AE9FEF15F0A1EF15F094EF4F
:102B400015F0BDEF15F0D8901B341B6E1C341C6EB5
:102B50001A061850165C19501758D8A0B2EF15F085
:102B6000B4EF15F0BAEF15F01850165E1950175A59
:102B70001B4A1C2AD890193218321A50D8B4C3EF05
:102B800015F0C5EF15F0D0EF15F01CAECAEF15F03B
:102B9000CCEF15F0A3EF15F0D0EF15F01B681C6813
:102BA0001A50D8B4D6EF15F0D8EF15F0DAEF15F0CB
:102BB0001B681C681BC016F01CC017F012002150C7
:102BC0001D5C22501E58D8A0E8EF15F0EAEF15F072
:102BD00024EF16F021C024F022C025F0D89024362E
:102BE00025361FC026F020C027F02450265E255031
:102BF000275A1D502624286E1E502720296E23C0D8
:102C000024F0010E256E000E266E242A0BEF16F01E
:102C1000D89025362636242E08EF16F021501F5C5A
:102C2000166E22502058176E28C018F029C019F0CF
:102C300023C01AF06DEC15F02550165C286E265056
:102C40001758296E4BEF16F01DC024F01EC025F05A
:102C5000D890243625361FC026F020C027F02450F7
:102C6000265E2550275A21502624286E22502720E0
:102C7000296E1D50215C166E1E502258176E28C0FA
:102C800018F029C019F023C01AF06DEC15F016C029
:102C900028F017C029F028C01DF029C01EF012002E
:102CA00020EE0BF02950D9262A50DA22010EDB50F3
:102CB00007E1090EDE5CD8B060EF16F062EF16F0A7
:102CC0006AEF16F029C019F02AC01AF099EC1BF02F
:102CD00070EF16F029C016F02AC017F05AEC13F066
:102CE00020EE0BF02950D9262A50DA22DE2A000ED7
:102CF000DD2220EE0BF02950D9262A50DA22010ECF
:102D0000DB5009E1100EDE5CD8A089EF16F08BEFE6
:102D100016F0C0EF16F020EE06F02950D9262A5002
:102D2000DA22DECF2BF0DECF2CF0DECF2DF0DECF9F
:102D30002EF0050EA1EF16F0D8902E322D322C3247
:102D40002B32E82E9CEF16F020EE04F02950D92605
:102D50002A50DA222BC0DEFF2CC0DDFF20EE02F06D
:102D60002950D9262A50DA22010EDF6E20EE0BF010
:102D70002950D9262A50DA22000EDE6E000EDD6EB2
:102D80001200316E3150110D000EF324326E010E1F
:102D9000F420336E20EE01F03250D9263350DA227F
:102DA000DF50B6EC1DF00009D8B4D9EF16F0DBEF18
:102DB00016F02EEF17F020EE01F03250D9263350E6
:102DC000DA22DF50D5EC1DF00009D8B4EAEF16F096
:102DD000ECEF16F02EEF17F032C01DF033C01EF0EE
:102DE000F5EC1EF032C016F033C017F0C5EC12F04F
:102DF00020EE02F03250D9263350DA22020EDF6480
:102E000004EF17F006EF17F00DEF17F032C0D9FFFF
:102E100033C0DAFFDF50C9EC1AF032C029F033C0FA
:102E20002AF020EE02F03250D9263350DA22DF5059
:102E3000306E3050030DC40EF324D96E000EF42012
:102E4000DA6E02D82EEF17F00500FA6EDE50FD6E36
:102E5000DE50FE6EDE50FF6EFA501200120020EEC1
:102E600002F01750D9261850DA22DF501A6E000EE1
:102E70003F6E1A504018D8A440EF17F042EF17F0F9
:102E800080EF17F020EE01F01750D9261850DA2203
:102E9000DE04D8A44EEF17F050EF17F07AEF17F0DA
:102EA00020EE03F01750D9261850DA22DF501A24EA
:102EB000196E190453EC1FF03A6E3B6A3ABE3B069A
:102EC0001A2853EC1FF0386E396A38BE39063A506A
:102ED000385C3950800A196E3B50800A1958D8B0B6
:102EE00074EF17F076EF17F087EF17F0010E3F6ED3
:102EF00087EF17F0000E3B6E000E3A6E87EF17F06B
:102F0000400453EC1FF03A6E3B6A3ABE3B063BBEB0
:102F10008EEF17F08CEF17F092EF17F0000E3B6E6C
:102F2000000E3A6E3AC017F03BC018F0120020EEC7
:102F300002F01750D9261850DA22DF50206E405088
:102F4000196E1A6AFF0E1B6EFF0E1C6E20EE03F048
:102F50001750D9261850DA22DF501D6E1D5020C0A0
:102F60001EF01F6A1E26000E1F221B501E261C501C
:102F70001F2219501E1807E11A501F18D8A4C3EFBA
:102F800017F0C5EF17F0E2EF17F020EE01F0175041
:102F9000D9261850DA22DE04D8A4D1EF17F0D3EFE7
:102FA00017F0DCEF17F0205053EC1FF0386E396A41
:102FB00038BE3906E9EF17F0000E396E000E386E94
:102FC000E9EF17F0402853EC1FF0386E396A38BE2D
:102FD000390639BEF0EF17F0EEEF17F0F4EF17F007
:102FE000000E396E000E386E38C017F039C018F078
:102FF0001200D8903D301C6E3C301F6E1CC020F07B
:1030000018501A5C216E19501B58226E20EE01F0E8
:103010001650D9261750DA22DE04D8A412EF18F081
:1030200014EF18F04FEF18F022BE1BEF18F019EF55
:1030300018F03AEF18F0000E1C6E000E1D6E1F50B7
:103040001C5E20501D5A1C50215C2250800A1E6EAE
:103050001D50800A1E58D8B030EF18F032EF18F02B
:103060004FEF18F021503C24216E22503D20226E5B
:103070004FEF18F021501F5C2050800A1C6E225028
:10308000800A1C58D8B047EF18F049EF18F04FEFFE
:1030900018F03C50215C216E3D502258226E21C018
:1030A00016F022C017F01200000E216E000E206EE6
:1030B00020EE02F01750D9261850DA22DF50406E69
:1030C00020EE02F01750D9261850DA22DF50226E77
:1030D00087EF18F0225053EC1FF01E6E1F6A1EBEC1
:1030E0001F061E50205C2150800A196E1F50800A56
:1030F0001958D8B07EEF18F080EF18F086EF18F06E
:1031000022C040F01EC020F01FC021F0222A20EE75
:1031100002F01750D9261850DA22DF50196E1A6AB9
:1031200020EE03F01750D9261850DA22DF501B6E1C
:103130001B501926000E1A2222501C6E1D6A1950AF
:103140001C5C1A501D58D8A0A8EF18F0AAEF18F070
:103150006AEF18F020C017F021C018F0120020EE1E
:1031600002F01950D9261A50DA22DF50D8B4BBEF3A
:1031700018F0BDEF18F0F2EF18F020EE04F019503F
:10318000D9261A50DA22DECF1BF0DDCF1CF0D89002
:103190001C321B32D8901C321B3220EE04F0195026
:1031A000D9261A50DA221B50DE5E1C50DD5A20EE62
:1031B00001F01950D9261A50DA22DF50A4EC1EF083
:1031C000D89017321632D8901732163220EE04F00B
:1031D0001950D9261A50DA221650DE261750DD2251
:1031E00005EF19F020EE01F01950D9261A50DA2215
:1031F000DF50A4EC1EF020EE04F01950D9261A502E
:10320000DA2216C0DEFF17C0DDFF120023C017F060
:1032100024C018F054EC18F017C036F018C037F07E
:1032200023C017F024C018F097EC17F017C038F03F
:1032300018C039F023C017F024C018F02FEC17F095
:1032400017C03AF018C03BF038503A5C3B50800A47
:10325000256E3950800A2558D8B031EF19F033EF78
:1032600019F03BEF19F038503624276E39503720CB
:10327000286E41EF19F03A503624276E3B50372024
:10328000286E20EE06F02350D9262450DA22DE5094
:10329000275CDE502858D8B050EF19F052EF19F0E3
:1032A00056EF19F0000E286E000E276E27C023F08F
:1032B00028C024F01200166E1650D8A462EF19F040
:1032C00064EF19F0A8EF19F01650110DE20EF32477
:1032D000176E000EF420186E20EE10F01750D9264D
:1032E0001850DA22000EDF6E20EE08F01750D926B3
:1032F0001850DA22000EDF6E20EE05F01750D926A6
:103300001850DA2210EE09F01750E1261850E22288
:10331000DFCFE7FF20EE0AF01750D9261850DA2247
:10332000000EDE6E000EDD6E20EE0CF01750D9267A
:103330001850DA22000EDE6E000EDD6E20EE0EF06A
:103340001750D9261850DA22000EDE6E000EDD6E00
:10335000120055C12AF056C12BF0C2EC07F02AC06A
:103360005BF12BC05CF1010120EE10F05551D92624
:103370005651DA22DF50030B020AD8B4C2EF19F01B
:10338000C4EF19F0CAEF19F05BC159F15CC15AF1F1
:10339000D8EF19F055C123F056C124F05BC125F0D8
:1033A0005CC126F067EC14F023C059F124C05AF137
:1033B000010120EE0AF05551D9265651DA225BC19F
:1033C000DEFF5CC1DDFF55C123F056C124F059C1B9
:1033D00025F05AC126F0CBEC10F023C057F124C0E1
:1033E00058F157C155F158C156F11200196E1CEF32
:1033F0001AF016B002D0879401D087843DEF1AF0FE
:1034000016B002D08A9E01D08A8E3DEF1AF016B017
:1034100002D0879801D087883DEF1AF016B002D00D
:10342000879A01D0878A3DEF1AF016B002D08898AB
:1034300001D088883DEF1AF01950176E186A18509D
:10344000000AD8B426EF1AF03DEF1AF01750000A20
:10345000D8B4F9EF19F0010AD8B400EF1AF0030A52
:10346000D8B407EF1AF0010AD8B40EEF1AF0070A21
:10347000D8B415EF1AF03DEF1AF01200046E64EFA5
:103480001AF001B002D0879401D0878485EF1AF03A
:1034900001B002D08A9E01D08A8E85EF1AF001B069
:1034A00002D0879801D0878885EF1AF001B002D04A
:1034B000879A01D0878A85EF1AF001B002D08898E8
:1034C00001D0888885EF1AF00450026E036A035019
:1034D000000AD8B46EEF1AF085EF1AF00250000A15
:1034E000D8B441EF1AF0010AD8B448EF1AF0030A31
:1034F000D8B44FEF1AF0010AD8B456EF1AF0070A01
:10350000D8B45DEF1AF085EF1AF01200000E866E47
:10351000600E856E000E826E060E836EF00E846E57
:10352000070E8B6EF70E876EF90E886E0F0E896E82
:103530008F0E8A6E8F0E0F01216F0B0E1C6FF90E0E
:10354000146F070E296FF70E0C6F000E206F000E20
:10355000286F000E136F000E0B6F000E1B6F000E16
:10356000276F000E0A6F000E126F000E1A6F000E0A
:103570001F6F0969116919691E69070E266F0869AD
:10358000106918691D690F0E256F080E0E01E56F91
:103590001200176E1750110D000EF324186E010E55
:1035A000F420196E20EE02F01850D9261950DA22B4
:1035B000000EDF6E20EE06F01850D9261950DA22E0
:1035C000DE6ADE6ADE6ADD6A20EE0BF01850D9266C
:1035D0001950DA22000EDE6E000EDD6E20EE0DF0C8
:1035E0001850D9261950DA22000EDE6E000EDD6E5C
:1035F00020EE01F01850D9261950DA22DF5091EC54
:103600001FF01200000E656E000E666E000E676EF3
:10361000000E686E000E636E000E646E000E616E2A
:10362000000E0F015A6F000E586F000E596F000EFA
:10363000546F100E556F000E566F000E606E000E28
:10364000536F000E516F000E526F840E5B6F000EB1
:10365000576F0E01C693BE83E80E166E410E176EAD
:10366000000E186EBFEC20F0120020EE02F0165093
:10367000D9261750DA22020EDE18D8A442EF1BF02A
:1036800044EF1BF066EF1BF020EE0BF01650D9262E
:103690001750DA22DE2A000EDD2220EE0BF0165043
:1036A000D9261750DA22DE50DE10D8A45AEF1BF0CC
:1036B0005CEF1BF066EF1BF020EE0BF01650D926E6
:1036C0001750DA22FF0EDE6EFF0EDD6E1200000EC6
:1036D000206E2050B6EC1DF00009D8A472EF1BF04C
:1036E00074EF1BF08EEF1BF0205097EC1DF00009DB
:1036F000D8B47DEF1BF07FEF1BF08EEF1BF0EFECEB
:1037000020F00009D8A487EF1BF089EF1BF08BEFA6
:103710001BF035EC0FF0000E98EF1BF0202A040E82
:10372000206495EF1BF097EF1BF069EF1BF0010E83
:10373000120020EE01F01950D9261A50DA22DF507B
:10374000A4EC1EF016501B6E17501C6E1D6A1E6AEC
:1037500020EE06F01950D9261A50DA221BC0DEFFDF
:103760001CC0DEFF1DC0DEFF1EC0DEFF20EE06F027
:103770001950D9261A50DA22040ED890DE36DE36D9
:10378000DE36DD36DD52DD52E82EBDEF1BF01200D5
:103790001EC0D9FF1FC0DAFFDF5091EC0BF016C03E
:1037A00020F017C021F0F2AED8EF1BF0DAEF1BF0DB
:1037B000E8EF1BF0F29E20EE06F01E50D9261F50B7
:1037C000DA2220C0DEFF21C0DDFFF28EF2EF1BF017
:1037D00020EE06F01E50D9261F50DA2220C0DEFF50
:1037E00021C0DDFF120018C01EF019C01FF016C066
:1037F0001CF017C01DF010EF1CF01EC0F6FF1FC01C
:10380000F7FF000EF86E0800F5CF20F01E4A1F2AC1
:103810001CC0D9FF1DC0DAFF20C0DFFF1C4A1D2AD3
:103820001A06D8A01B061A2806E11B28D8A41BEFED
:103830001CF01DEF1CF0FDEF1BF0120020EE06F057
:103840001650D9261750DA22DECF18F0DECF19F045
:10385000DECF1AF0DECF1BF0050E34EF1CF0D8904F
:103860001B321A3219321832E82E2FEF1CF020EEDC
:1038700004F01650D9261750DA22DECF1CF0DDCF27
:103880001DF018501C5C166E19501D58176E120052
:10389000000E226E2250090D9F0EF324D96E000EE9
:1038A000F420DA6E0001DFA258EF1CF05AEF1CF092
:1038B00067EF1CF02250090D970EF3241E6E000EC8
:1038C000F4201F6EC8EC1BF02250F2EC20F0222AEC
:1038D000040E22646EEF1CF070EF1CF04AEF1CF037
:1038E0001200970E186E000E196E1950000802E1B2
:1038F0001850BB08D8B07FEF1CF081EF1CF083EFAD
:103900001CF099EF1CF018C016F019C017F0A8ECC5
:1039100020F0090E1826000E19221950000802E1A5
:103920001850BB08D8B097EF1CF099EF1CF083EF4C
:103930001CF012004150D8B4A0EF1CF0A2EF1CF014
:10394000A6EF1CF09DEC20F0000E416E010E426EC1
:10395000A5EC1FF00009D8A4B0EF1CF0B2EF1CF0EA
:10396000B5EF1CF0000EC1EF1CF0EDEC1FF0B8EC51
:103970001FF0EDEC20F0426E71EC1CF0DFEC20F05B
:10398000010E12004A0EF66E3E0EF76E000EF86E35
:1039900000EEC4F010EE2FF00900F5CFEEFFE55079
:1039A000E150FAE101EE00F0550EEE6AE806FDE1A5
:1039B00000EE60F0640EEE6AE806FDE100EE34F021
:1039C000160EEE6AE806FDE14A904A9200016CEF9D
:1039D0001EF00F0E0F01526F000E536F000E586F46
:1039E000000E656E000E666E000E676E000E686E4D
:1039F000000E636E000E646E410E546F8B0E556F99
:103A00000F0E566FC40E5B6F0E01C693BE83A40EDD
:103A1000166E410E176E000E186EBFEC20F01200ED
:103A2000186E21EF1DF0010E00018D6F020E8E6FDA
:103A300036EF1DF0020E00018D6F020E8E6F36EF15
:103A40001DF01850166E176A1750000AD8B42BEFE5
:103A50001DF036EF1DF01650000AD8B413EF1DF01C
:103A6000010AD8B41AEF1DF036EF1DF01200176EE0
:103A7000050E17603EEF1DF040EF1DF055EF1DF0F5
:103A80001750110D020EF324D96E010EF420DA6ED8
:103A9000020EDE18D8B44FEF1DF052EF1DF0010EEC
:103AA00053EF1DF0000E56EF1DF0000E120017BE72
:103AB00064EF1DF0175006E11604D8B062EF1DF058
:103AC00064EF1DF072EF1DF016C018F017C019F06A
:103AD000181E191E184A192A18C016F019C017F016
:103AE00076EF1DF016C016F017C017F0120002BED8
:103AF00084EF1DF0025006E10104D8B082EF1DF002
:103B000084EF1DF092EF1DF001C003F002C004F03D
:103B1000031E041E034A042A03C001F004C002F07D
:103B200096EF1DF001C001F002C002F01200166E07
:103B3000050E16609EEF1DF0A0EF1DF0B4EF1DF016
:103B40001650090D9F0EF324D96E000EF420DA6E84
:103B50000001DFB0AEEF1DF0B1EF1DF0010EB2EFCE
:103B60001DF0000EB5EF1DF0000E1200166E050ED2
:103B70001660BDEF1DF0BFEF1DF0D3EF1DF0165026
:103B8000090D9F0EF324D96E000EF420DA6E0001A9
:103B9000DFB2CDEF1DF0D0EF1DF0010ED1EF1DF023
:103BA000000ED4EF1DF0000E1200166E050E16600A
:103BB000DCEF1DF0DEEF1DF0F2EF1DF01650090DE9
:103BC0009F0EF324D96E000EF420DA6E0001DFB6EA
:103BD000ECEF1DF0EFEF1DF0010EF0EF1DF0000E09
:103BE000F3EF1DF0000E1200016E050E0160FBEFF9
:103BF0001DF0FDEF1DF011EF1EF00150090D9F0E9D
:103C0000F324D96E000EF420DA6E0001DFB20BEF60
:103C10001EF00EEF1EF0010E0FEF1EF0000E12EF61
:103C20001EF0000E1200016E050E01601AEF1EF06C
:103C30001CEF1EF030EF1EF00150090D9F0EF32413
:103C4000D96E000EF420DA6E0001DFB02AEF1EF00C
:103C50002DEF1EF0010E2EEF1EF0000E31EF1EF0C4
:103C6000000E1200970E166E000E176E560E186E8E
:103C70000F0E196E000E1B6E2D0E1A6EF3EC1BF05C
:103C8000000E216E2150CAEC1FF0212A040E21647F
:103C90004CEF1EF04EEF1EF042EF1EF01200000E31
:103CA000166E010E176E010E186E0F0E196E000EB5
:103CB0001B6E550E1A6EF3EC1BF0000E216E215098
:103CC000C9EC1AF0212A040E216469EF1EF06BEF93
:103CD0001EF05FEF1EF01200DCEC1FF0F28EF28C93
:103CE000200E166E3A0E176E000E186EC6EC20F0FF
:103CF000F20E166E400E176E000E186EB8EC20F025
:103D00009AEC1CF07AEC0DF080EF1EF037EF00F02B
:103D1000186E1850D8A48FEF1EF091EF1EF09FEF91
:103D20001EF01850110DEE0EF324D96E000EF42083
:103D3000DA6EDECF16F0DDCF17F0A3EF1EF0000E27
:103D4000176E000E166E1200186E050E1860ABEF9F
:103D50001EF0ADEF1EF0BBEF1EF01850090D9D0ECA
:103D6000F324D96E000EF420DA6EDECF16F0DDCF2C
:103D700017F0BFEF1EF0000E176E000E166E120049
:103D80000E01C6930001FD51FE11FF11D8B4CBEF17
:103D90001EF0CDEF1EF0DAEF1EF002D8DAEF1EF0C3
:103DA0000500FA6EFD51FD6EFE51FE6EFF51FF6E75
:103DB000FA501200120016C018F017C019F0D8906F
:103DC00019321832D890193218321850A06E16C015
:103DD00018F0030E1816060E196ED8901836192E04
:103DE000EDEF1EF018509F6E1200F2AEFAEF1EF0CB
:103DF000FCEF1EF006EF1FF0F29E1DC019F01EC072
:103E00001AF0AFEC18F0F28E0CEF1FF01DC019F095
:103E10001EC01AF0AFEC18F0120020EE08F00150AE
:103E2000D9260250DA22DF8820EE03F00150D9268D
:103E30000250DA22040EDF6E20EE02F00150D92685
:103E40000250DA22C00EDF6E1200A02C00281500EE
:103E5000C42700E24100E24100E24100E64100E601
:103E60004100001E3CE4410000000203800F64009A
:093E700000000000000000000049
:103E7A00000E1A6E1A50110D000EF324166E010E62
:103E8A00F420176E35EC1BF01A2A040E1A6450EF50
:103E9A001FF052EF1FF03FEF1FF01200166E050ED3
:103EAA0016605AEF1FF05CEF1FF067EF1FF0165015
:103EBA00110D0A0EF324D96E010EF420DA6EDF50CA
:103ECA0068EF1FF0000E1200442A020E446470EFDD
:103EDA001FF072EF1FF074EF1FF0000E446EDC0E3D
:103EEA004424D96EDA6A000EDA22DF50436E1200D9
:103EFA00166E050E166084EF1FF086EF1FF090EF26
:103F0A001FF01650090D9F0EF324D96E000EF420EF
:103F1A00DA6E0001DF801200166E050E166098EF49
:103F2A001FF09AEF1FF0A4EF1FF01650090D9F0E15
:103F3A00F324D96E000EF420DA6E0001DF96120027
:103F4A0067EC1BF00009D8A4ADEF1FF0AFEF1FF02C
:103F5A00B2EF1FF0000EB7EF1FF0CDEC20F048ECE7
:103F6A001CF0010E1200000E0001966F000E336E57
:103F7A0033503AEC09F0332A3350D8B4C7EF1FF064
:103F8A00C9EF1FF0BDEF1FF01200186E18507DEC3C
:103F9A001FF0185091EC1FF01850090D970EF324DA
:103FAA00166E000EF420176EA8EC20F01200EBEC4F
:103FBA0020F06BEC20F086EC1AF086EC20F002EC94
:103FCA001BF092EC20F03EEC20F09DEC20F0120069
:103FDA00000E0001F36FF351C1EC16F00001F32B50
:103FEA00040EF365FBEF1FF0FDEF1FF0F0EF1FF07B
:103FFA00120020EE08F01650D9261750DA22DFB840
:10400A0009EF20F00CEF20F0010E0DEF20F0000E6A
:10401A00120020EE08F01650D9261750DA22DFB621
:10402A0019EF20F01CEF20F0010E1DEF20F0000E1A
:10403A00120020EE08F00150D9260250DA22DFB62B
:10404A0029EF20F02CEF20F0010E2DEF20F0000ECA
:10405A00120020EE08F00150D9260250DA22DFB809
:10406A0039EF20F03CEF20F0010E3DEF20F0000E7A
:10407A001200010EBE6E000EBD6E000EBF6EC70EA0
:10408A00BB6E000EBA6E0E01C993800EBC6E120092
:10409A00000E196E19505BEC19F0192A1950D8B490
:1040AA0059EF20F05BEF20F04FEF20F0120020EEE6
:1040BA0008F00150D9260250DA22DF8620EE08F0F5
:1040CA000150D9260250DA22DF981200000E0E01A2
:1040DA00DC6F000EDD6F000EDE6F000EDF6F000E6C
:1040EA00E06F000EE16F1200030E00018D6F010EEA
:1040FA008E6F000E88EC1EF016C08FF017C090F07D
:10410A001200600E0E01D36F000ED56F000ED76F2E
:10411A00060ED96F000ED86F1200800EA16E000E27
:10412A00A06E000E9F6EAD503F0B4009AD6E12009F
:10413A0032EC1EF04FEC1EF04DEC20F071EC1CF04E
:10414A00E2EC20F0120020EE08F01650D9261750A3
:10415A00DA22DF92120020EE08F00150D92602502E
:10416A00DA22DF82120016C0D3F017C0D4F018C0CA
:10417A00D5F0120016C0FDF017C0FEF018C0FFF00F
:10418A00120016C0D6F017C0D7F018C0D8F0120027
:10419A008AEC0CF069EC1FF012000E01C693EAECEF
:1041AA0014F01200000E00018E6F1200000E0001C2
:1041BA008D6F12003DEC1FF01200E9EC1CF01200AA
:1041CA0000018E51120000018D511200F29A120064
:1041DA00000E1200475012001200120012001200C4
:020000040020DA
:10000000FFFFFFFFFFFFFFFFFFFFFFFFFFFFFFFF00
:10001000FFFFFFFFFFFFFFFFFFFFFFFFFFFFFFFFF0
:10002000FFFFFFFFFFFFFFFFFFFFFFFFFFFFFFFFE0
:10003000FFFFFFFFFFFFFFFFFFFFFFFFFFFFFFFFD0
:10004000FFFFFFFFFFFFFFFFFFFFFFFFFFFFFFFFC0
:10005000FFFFFFFFFFFFFFFFFFFFFFFFFFFFFFFFB0
:10006000FFFFFFFFFFFFFFFFFFFFFFFFFFFFFFFFA0
:10007000FFFFFFFFFFFFFFFFFFFFFFFFFFFFFFFF90
:10008000FFFFFFFFFFFFFFFFFFFFFFFFFFFFFFFF80
:10009000FFFFFFFFFFFFFFFFFFFFFFFFFFFFFFFF70
:1000A000FFFFFFFFFFFFFFFFFFFFFFFFFFFFFFFF60
:1000B000FFFFFFFFFFFFFFFFFFFFFFFFFFFFFFFF50
:1000C000FFFFFFFFFFFFFFFFFFFFFFFFFFFFFFFF40
:1000D000FFFFFFFFFFFFFFFFFFFFFFFFFFFFFFFF30
:1000E000FFFFFFFFFFFFFFFFFFFFFFFFFFFFFFFF20
:1000F000FFFFFFFFFFFFFFFFFFFFFFFFFFFFFFFF10
:020000040030CA
:0C000000ECFFBFF79FFFFFFFFFFFFFFFBB
:00000001FF
